{
  "contractName": "Asset",
  "abi": [
    {
      "constant": true,
      "inputs": [],
      "name": "name",
      "outputs": [
        {
          "name": "",
          "type": "string"
        }
      ],
      "payable": false,
      "stateMutability": "view",
      "type": "function",
      "signature": "0x06fdde03"
    },
    {
      "constant": true,
      "inputs": [],
      "name": "status",
      "outputs": [
        {
          "name": "",
          "type": "uint8"
        }
      ],
      "payable": false,
      "stateMutability": "view",
      "type": "function",
      "signature": "0x200d2ed2"
    },
    {
      "constant": true,
      "inputs": [],
      "name": "custodian",
      "outputs": [
        {
          "name": "",
          "type": "address"
        }
      ],
      "payable": false,
      "stateMutability": "view",
      "type": "function",
      "signature": "0x375b74c3"
    },
    {
      "inputs": [
        {
          "name": "_name",
          "type": "string"
        }
      ],
      "payable": false,
      "stateMutability": "nonpayable",
      "type": "constructor",
      "signature": "constructor"
    },
    {
      "anonymous": false,
      "inputs": [
        {
          "indexed": false,
          "name": "name",
          "type": "string"
        },
        {
          "indexed": false,
          "name": "account",
          "type": "address"
        },
        {
          "indexed": false,
          "name": "custodian",
          "type": "address"
        },
        {
          "indexed": false,
          "name": "timestamp",
          "type": "uint256"
        }
      ],
      "name": "Action",
      "type": "event",
      "signature": "0x85bc0605b6ec0e27701499e22eab1c5cbff14b94d451755ad083dc2663b8ddfe"
    },
    {
      "constant": false,
      "inputs": [
        {
          "name": "_to",
          "type": "address"
        }
      ],
      "name": "send",
      "outputs": [],
      "payable": false,
      "stateMutability": "nonpayable",
      "type": "function",
      "signature": "0x3e58c58c"
    },
    {
      "constant": false,
      "inputs": [],
      "name": "receive",
      "outputs": [],
      "payable": false,
      "stateMutability": "nonpayable",
      "type": "function",
      "signature": "0xa3e76c0f"
    }
  ],
  "bytecode": "0x608060405234801561001057600080fd5b5060405161094c38038061094c8339810180604052602081101561003357600080fd5b81019080805164010000000081111561004b57600080fd5b8281019050602081018481111561006157600080fd5b815185600182028301116401000000008211171561007e57600080fd5b5050929190505050806000908051906020019061009c9291906101e0565b5033600160006101000a81548173ffffffffffffffffffffffffffffffffffffffff021916908373ffffffffffffffffffffffffffffffffffffffff1602179055506000600160146101000a81548160ff021916908360028111156100fd57fe5b02179055507f85bc0605b6ec0e27701499e22eab1c5cbff14b94d451755ad083dc2663b8ddfe33334260405180806020018573ffffffffffffffffffffffffffffffffffffffff1673ffffffffffffffffffffffffffffffffffffffff1681526020018473ffffffffffffffffffffffffffffffffffffffff1673ffffffffffffffffffffffffffffffffffffffff168152602001838152602001828103825260068152602001807f435245415445000000000000000000000000000000000000000000000000000081525060200194505050505060405180910390a150610285565b828054600181600116156101000203166002900490600052602060002090601f016020900481019282601f1061022157805160ff191683800117855561024f565b8280016001018555821561024f579182015b8281111561024e578251825591602001919060010190610233565b5b50905061025c9190610260565b5090565b61028291905b8082111561027e576000816000905550600101610266565b5090565b90565b6106b8806102946000396000f3fe60806040526004361061006d576000357c0100000000000000000000000000000000000000000000000000000000900463ffffffff16806306fdde0314610072578063200d2ed214610102578063375b74c31461013b5780633e58c58c14610192578063a3e76c0f146101e3575b600080fd5b34801561007e57600080fd5b506100876101fa565b6040518080602001828103825283818151815260200191508051906020019080838360005b838110156100c75780820151818401526020810190506100ac565b50505050905090810190601f1680156100f45780820380516001836020036101000a031916815260200191505b509250505060405180910390f35b34801561010e57600080fd5b50610117610298565b6040518082600281111561012757fe5b60ff16815260200191505060405180910390f35b34801561014757600080fd5b506101506102ab565b604051808273ffffffffffffffffffffffffffffffffffffffff1673ffffffffffffffffffffffffffffffffffffffff16815260200191505060405180910390f35b34801561019e57600080fd5b506101e1600480360360208110156101b557600080fd5b81019080803573ffffffffffffffffffffffffffffffffffffffff1690602001909291905050506102d1565b005b3480156101ef57600080fd5b506101f86104fe565b005b60008054600181600116156101000203166002900480601f0160208091040260200160405190810160405280929190818152602001828054600181600116156101000203166002900480156102905780601f1061026557610100808354040283529160200191610290565b820191906000526020600020905b81548152906001019060200180831161027357829003601f168201915b505050505081565b600160149054906101000a900460ff1681565b600160009054906101000a900473ffffffffffffffffffffffffffffffffffffffff1681565b600160009054906101000a900473ffffffffffffffffffffffffffffffffffffffff1673ffffffffffffffffffffffffffffffffffffffff163373ffffffffffffffffffffffffffffffffffffffff1614151561032d57600080fd5b600160009054906101000a900473ffffffffffffffffffffffffffffffffffffffff1673ffffffffffffffffffffffffffffffffffffffff168173ffffffffffffffffffffffffffffffffffffffff161415151561038a57600080fd5b6001600281111561039757fe5b600160149054906101000a900460ff1660028111156103b257fe5b141515156103bf57600080fd5b60018060146101000a81548160ff021916908360028111156103dd57fe5b021790555080600160006101000a81548173ffffffffffffffffffffffffffffffffffffffff021916908373ffffffffffffffffffffffffffffffffffffffff1602179055507f85bc0605b6ec0e27701499e22eab1c5cbff14b94d451755ad083dc2663b8ddfe33824260405180806020018573ffffffffffffffffffffffffffffffffffffffff1673ffffffffffffffffffffffffffffffffffffffff1681526020018473ffffffffffffffffffffffffffffffffffffffff1673ffffffffffffffffffffffffffffffffffffffff168152602001838152602001828103825260048152602001807f53454e440000000000000000000000000000000000000000000000000000000081525060200194505050505060405180910390a150565b600160009054906101000a900473ffffffffffffffffffffffffffffffffffffffff1673ffffffffffffffffffffffffffffffffffffffff163373ffffffffffffffffffffffffffffffffffffffff1614151561055a57600080fd5b6001600281111561056757fe5b600160149054906101000a900460ff16600281111561058257fe5b14151561058e57600080fd5b6002600160146101000a81548160ff021916908360028111156105ad57fe5b02179055507f85bc0605b6ec0e27701499e22eab1c5cbff14b94d451755ad083dc2663b8ddfe33334260405180806020018573ffffffffffffffffffffffffffffffffffffffff1673ffffffffffffffffffffffffffffffffffffffff1681526020018473ffffffffffffffffffffffffffffffffffffffff1673ffffffffffffffffffffffffffffffffffffffff168152602001838152602001828103825260078152602001807f524543454956450000000000000000000000000000000000000000000000000081525060200194505050505060405180910390a156fea165627a7a723058206caeca3026b598cfb5fa0829d01d56d8a40a19de4135e612830b606dd3fa9e960029",
  "source": "pragma solidity >=0.4.22 <0.9.0;\n\ncontract Asset {\n  string public name;\n  address public custodian;\n  STATUSES public status;\n\n  enum STATUSES {\n    CREATED,\n    SENT,\n    RECEIVED\n  }\n\n  event Action(\n    string name,\n    address account,\n    address custodian,\n    uint timestamp\n  );\n\n  constructor(string memory _name) public {\n    name = _name;\n    custodian = msg.sender;\n    status = STATUSES.CREATED;\n    emit Action(\"CREATE\", msg.sender, msg.sender, block.timestamp);\n  }\n\n  function send(address _to) public {\n    require(msg.sender == custodian);\n    require(_to != custodian);\n    require(status != STATUSES.SENT);\n    status = STATUSES.SENT;\n    custodian = _to;\n    emit Action(\"SEND\", msg.sender, _to, block.timestamp);\n  }\n\n  function receive() public {\n    require(msg.sender == custodian);\n    require(status == STATUSES.SENT);\n    status = STATUSES.RECEIVED;\n    emit Action(\"RECEIVE\", msg.sender, msg.sender, block.timestamp);\n  }\n}",
  "sourcePath": "/home/anirudhr/Desktop/BlockChain/Supply_Chain/contracts/Asset.sol",
  "compiler": {
    "name": "solc",
    "version": "0.5.0+commit.1d4f565a.Emscripten.clang"
  },
  "schemaVersion": "3.0.1",
  "updatedAt": "2020-12-28T05:50:28.990Z",
  "devdoc": {
    "methods": {}
  },
  "userdoc": {
    "methods": {}
  }
}